{
  "contractName": "LimitedCellToken",
  "abi": [
    {
      "inputs": [],
      "stateMutability": "nonpayable",
      "type": "constructor"
    },
    {
      "anonymous": false,
      "inputs": [
        {
          "indexed": true,
          "internalType": "address",
          "name": "owner",
          "type": "address"
        },
        {
          "indexed": true,
          "internalType": "address",
          "name": "approved",
          "type": "address"
        },
        {
          "indexed": true,
          "internalType": "uint256",
          "name": "tokenId",
          "type": "uint256"
        }
      ],
      "name": "Approval",
      "type": "event"
    },
    {
      "anonymous": false,
      "inputs": [
        {
          "indexed": true,
          "internalType": "address",
          "name": "owner",
          "type": "address"
        },
        {
          "indexed": true,
          "internalType": "address",
          "name": "operator",
          "type": "address"
        },
        {
          "indexed": false,
          "internalType": "bool",
          "name": "approved",
          "type": "bool"
        }
      ],
      "name": "ApprovalForAll",
      "type": "event"
    },
    {
      "anonymous": false,
      "inputs": [
        {
          "indexed": true,
          "internalType": "address",
          "name": "previousOwner",
          "type": "address"
        },
        {
          "indexed": true,
          "internalType": "address",
          "name": "newOwner",
          "type": "address"
        }
      ],
      "name": "OwnershipTransferred",
      "type": "event"
    },
    {
      "anonymous": false,
      "inputs": [
        {
          "indexed": true,
          "internalType": "address",
          "name": "from",
          "type": "address"
        },
        {
          "indexed": true,
          "internalType": "address",
          "name": "to",
          "type": "address"
        },
        {
          "indexed": true,
          "internalType": "uint256",
          "name": "tokenId",
          "type": "uint256"
        }
      ],
      "name": "Transfer",
      "type": "event"
    },
    {
      "inputs": [
        {
          "internalType": "address",
          "name": "to",
          "type": "address"
        },
        {
          "internalType": "uint256",
          "name": "tokenId",
          "type": "uint256"
        }
      ],
      "name": "approve",
      "outputs": [],
      "stateMutability": "nonpayable",
      "type": "function"
    },
    {
      "inputs": [
        {
          "internalType": "address",
          "name": "owner",
          "type": "address"
        }
      ],
      "name": "balanceOf",
      "outputs": [
        {
          "internalType": "uint256",
          "name": "",
          "type": "uint256"
        }
      ],
      "stateMutability": "view",
      "type": "function"
    },
    {
      "inputs": [
        {
          "internalType": "uint256",
          "name": "tokenId",
          "type": "uint256"
        }
      ],
      "name": "getApproved",
      "outputs": [
        {
          "internalType": "address",
          "name": "",
          "type": "address"
        }
      ],
      "stateMutability": "view",
      "type": "function"
    },
    {
      "inputs": [
        {
          "internalType": "address",
          "name": "owner",
          "type": "address"
        },
        {
          "internalType": "address",
          "name": "operator",
          "type": "address"
        }
      ],
      "name": "isApprovedForAll",
      "outputs": [
        {
          "internalType": "bool",
          "name": "",
          "type": "bool"
        }
      ],
      "stateMutability": "view",
      "type": "function"
    },
    {
      "inputs": [],
      "name": "name",
      "outputs": [
        {
          "internalType": "string",
          "name": "",
          "type": "string"
        }
      ],
      "stateMutability": "view",
      "type": "function"
    },
    {
      "inputs": [],
      "name": "owner",
      "outputs": [
        {
          "internalType": "address",
          "name": "",
          "type": "address"
        }
      ],
      "stateMutability": "view",
      "type": "function"
    },
    {
      "inputs": [
        {
          "internalType": "uint256",
          "name": "tokenId",
          "type": "uint256"
        }
      ],
      "name": "ownerOf",
      "outputs": [
        {
          "internalType": "address",
          "name": "",
          "type": "address"
        }
      ],
      "stateMutability": "view",
      "type": "function"
    },
    {
      "inputs": [],
      "name": "renounceOwnership",
      "outputs": [],
      "stateMutability": "nonpayable",
      "type": "function"
    },
    {
      "inputs": [
        {
          "internalType": "address",
          "name": "from",
          "type": "address"
        },
        {
          "internalType": "address",
          "name": "to",
          "type": "address"
        },
        {
          "internalType": "uint256",
          "name": "tokenId",
          "type": "uint256"
        }
      ],
      "name": "safeTransferFrom",
      "outputs": [],
      "stateMutability": "nonpayable",
      "type": "function"
    },
    {
      "inputs": [
        {
          "internalType": "address",
          "name": "from",
          "type": "address"
        },
        {
          "internalType": "address",
          "name": "to",
          "type": "address"
        },
        {
          "internalType": "uint256",
          "name": "tokenId",
          "type": "uint256"
        },
        {
          "internalType": "bytes",
          "name": "_data",
          "type": "bytes"
        }
      ],
      "name": "safeTransferFrom",
      "outputs": [],
      "stateMutability": "nonpayable",
      "type": "function"
    },
    {
      "inputs": [
        {
          "internalType": "address",
          "name": "operator",
          "type": "address"
        },
        {
          "internalType": "bool",
          "name": "approved",
          "type": "bool"
        }
      ],
      "name": "setApprovalForAll",
      "outputs": [],
      "stateMutability": "nonpayable",
      "type": "function"
    },
    {
      "inputs": [
        {
          "internalType": "bytes4",
          "name": "interfaceId",
          "type": "bytes4"
        }
      ],
      "name": "supportsInterface",
      "outputs": [
        {
          "internalType": "bool",
          "name": "",
          "type": "bool"
        }
      ],
      "stateMutability": "view",
      "type": "function"
    },
    {
      "inputs": [],
      "name": "symbol",
      "outputs": [
        {
          "internalType": "string",
          "name": "",
          "type": "string"
        }
      ],
      "stateMutability": "view",
      "type": "function"
    },
    {
      "inputs": [
        {
          "internalType": "uint256",
          "name": "tokenId",
          "type": "uint256"
        }
      ],
      "name": "tokenURI",
      "outputs": [
        {
          "internalType": "string",
          "name": "",
          "type": "string"
        }
      ],
      "stateMutability": "view",
      "type": "function"
    },
    {
      "inputs": [
        {
          "internalType": "address",
          "name": "from",
          "type": "address"
        },
        {
          "internalType": "address",
          "name": "to",
          "type": "address"
        },
        {
          "internalType": "uint256",
          "name": "tokenId",
          "type": "uint256"
        }
      ],
      "name": "transferFrom",
      "outputs": [],
      "stateMutability": "nonpayable",
      "type": "function"
    },
    {
      "inputs": [
        {
          "internalType": "address",
          "name": "newOwner",
          "type": "address"
        }
      ],
      "name": "transferOwnership",
      "outputs": [],
      "stateMutability": "nonpayable",
      "type": "function"
    },
    {
      "inputs": [
        {
          "internalType": "address",
          "name": "_to",
          "type": "address"
        }
      ],
      "name": "mintAndTransfer",
      "outputs": [],
      "stateMutability": "nonpayable",
      "type": "function"
    },
    {
      "inputs": [],
      "name": "getTotalSupply",
      "outputs": [
        {
          "internalType": "uint256",
          "name": "",
          "type": "uint256"
        }
      ],
      "stateMutability": "view",
      "type": "function"
    }
  ],
  "bytecode": "0x60806040523480156200001157600080fd5b506040518060400160405280600981526020017f43656c6c546f6b656e00000000000000000000000000000000000000000000008152506040518060400160405280600481526020017f43656c6c00000000000000000000000000000000000000000000000000000000815250816000908051906020019062000096929190620001a6565b508060019080519060200190620000af929190620001a6565b505050620000d2620000c6620000d860201b60201c565b620000e060201b60201c565b620002bb565b600033905090565b6000600660009054906101000a900473ffffffffffffffffffffffffffffffffffffffff16905081600660006101000a81548173ffffffffffffffffffffffffffffffffffffffff021916908373ffffffffffffffffffffffffffffffffffffffff1602179055508173ffffffffffffffffffffffffffffffffffffffff168173ffffffffffffffffffffffffffffffffffffffff167f8be0079c531659141344cd1fd0a4f28419497f9722a3daafe3b4186f6b6457e060405160405180910390a35050565b828054620001b49062000285565b90600052602060002090601f016020900481019282620001d8576000855562000224565b82601f10620001f357805160ff191683800117855562000224565b8280016001018555821562000224579182015b828111156200022357825182559160200191906001019062000206565b5b50905062000233919062000237565b5090565b5b808211156200025257600081600090555060010162000238565b5090565b7f4e487b7100000000000000000000000000000000000000000000000000000000600052602260045260246000fd5b600060028204905060018216806200029e57607f821691505b60208210811415620002b557620002b462000256565b5b50919050565b612e6f80620002cb6000396000f3fe608060405234801561001057600080fd5b50600436106101165760003560e01c80638da5cb5b116100a2578063ba33f17711610071578063ba33f177146102cb578063c4e41b22146102e7578063c87b56dd14610305578063e985e9c514610335578063f2fde38b1461036557610116565b80638da5cb5b1461025757806395d89b4114610275578063a22cb46514610293578063b88d4fde146102af57610116565b806323b872dd116100e957806323b872dd146101b557806342842e0e146101d15780636352211e146101ed57806370a082311461021d578063715018a61461024d57610116565b806301ffc9a71461011b57806306fdde031461014b578063081812fc14610169578063095ea7b314610199575b600080fd5b61013560048036038101906101309190611c1c565b610381565b6040516101429190611c64565b60405180910390f35b610153610463565b6040516101609190611d18565b60405180910390f35b610183600480360381019061017e9190611d70565b6104f5565b6040516101909190611dde565b60405180910390f35b6101b360048036038101906101ae9190611e25565b61057a565b005b6101cf60048036038101906101ca9190611e65565b610692565b005b6101eb60048036038101906101e69190611e65565b6106f2565b005b61020760048036038101906102029190611d70565b610712565b6040516102149190611dde565b60405180910390f35b61023760048036038101906102329190611eb8565b6107c4565b6040516102449190611ef4565b60405180910390f35b61025561087c565b005b61025f610904565b60405161026c9190611dde565b60405180910390f35b61027d61092e565b60405161028a9190611d18565b60405180910390f35b6102ad60048036038101906102a89190611f3b565b6109c0565b005b6102c960048036038101906102c491906120b0565b6109d6565b005b6102e560048036038101906102e09190611eb8565b610a38565b005b6102ef610c47565b6040516102fc9190611ef4565b60405180910390f35b61031f600480360381019061031a9190611d70565b610c58565b60405161032c9190611d18565b60405180910390f35b61034f600480360381019061034a9190612133565b610cff565b60405161035c9190611c64565b60405180910390f35b61037f600480360381019061037a9190611eb8565b610d93565b005b60007f80ac58cd000000000000000000000000000000000000000000000000000000007bffffffffffffffffffffffffffffffffffffffffffffffffffffffff1916827bffffffffffffffffffffffffffffffffffffffffffffffffffffffff1916148061044c57507f5b5e139f000000000000000000000000000000000000000000000000000000007bffffffffffffffffffffffffffffffffffffffffffffffffffffffff1916827bffffffffffffffffffffffffffffffffffffffffffffffffffffffff1916145b8061045c575061045b82610e8b565b5b9050919050565b606060008054610472906121a2565b80601f016020809104026020016040519081016040528092919081815260200182805461049e906121a2565b80156104eb5780601f106104c0576101008083540402835291602001916104eb565b820191906000526020600020905b8154815290600101906020018083116104ce57829003601f168201915b5050505050905090565b600061050082610ef5565b61053f576040517f08c379a000000000000000000000000000000000000000000000000000000000815260040161053690612246565b60405180910390fd5b6004600083815260200190815260200160002060009054906101000a900473ffffffffffffffffffffffffffffffffffffffff169050919050565b600061058582610712565b90508073ffffffffffffffffffffffffffffffffffffffff168373ffffffffffffffffffffffffffffffffffffffff1614156105f6576040517f08c379a00000000000000000000000000000000000000000000000000000000081526004016105ed906122d8565b60405180910390fd5b8073ffffffffffffffffffffffffffffffffffffffff16610615610f61565b73ffffffffffffffffffffffffffffffffffffffff16148061064457506106438161063e610f61565b610cff565b5b610683576040517f08c379a000000000000000000000000000000000000000000000000000000000815260040161067a9061236a565b60405180910390fd5b61068d8383610f69565b505050565b6106a361069d610f61565b82611022565b6106e2576040517f08c379a00000000000000000000000000000000000000000000000000000000081526004016106d9906123fc565b60405180910390fd5b6106ed838383611100565b505050565b61070d838383604051806020016040528060008152506109d6565b505050565b6000806002600084815260200190815260200160002060009054906101000a900473ffffffffffffffffffffffffffffffffffffffff169050600073ffffffffffffffffffffffffffffffffffffffff168173ffffffffffffffffffffffffffffffffffffffff1614156107bb576040517f08c379a00000000000000000000000000000000000000000000000000000000081526004016107b29061248e565b60405180910390fd5b80915050919050565b60008073ffffffffffffffffffffffffffffffffffffffff168273ffffffffffffffffffffffffffffffffffffffff161415610835576040517f08c379a000000000000000000000000000000000000000000000000000000000815260040161082c90612520565b60405180910390fd5b600360008373ffffffffffffffffffffffffffffffffffffffff1673ffffffffffffffffffffffffffffffffffffffff168152602001908152602001600020549050919050565b610884610f61565b73ffffffffffffffffffffffffffffffffffffffff166108a2610904565b73ffffffffffffffffffffffffffffffffffffffff16146108f8576040517f08c379a00000000000000000000000000000000000000000000000000000000081526004016108ef9061258c565b60405180910390fd5b6109026000611367565b565b6000600660009054906101000a900473ffffffffffffffffffffffffffffffffffffffff16905090565b60606001805461093d906121a2565b80601f0160208091040260200160405190810160405280929190818152602001828054610969906121a2565b80156109b65780601f1061098b576101008083540402835291602001916109b6565b820191906000526020600020905b81548152906001019060200180831161099957829003601f168201915b5050505050905090565b6109d26109cb610f61565b838361142d565b5050565b6109e76109e1610f61565b83611022565b610a26576040517f08c379a0000000000000000000000000000000000000000000000000000000008152600401610a1d906123fc565b60405180910390fd5b610a328484848461159a565b50505050565b610a40610904565b73ffffffffffffffffffffffffffffffffffffffff163373ffffffffffffffffffffffffffffffffffffffff161480610a8257506001610a7f336107c4565b10155b610ac1576040517f08c379a0000000000000000000000000000000000000000000000000000000008152600401610ab8906125f8565b60405180910390fd5b610ac9610904565b73ffffffffffffffffffffffffffffffffffffffff163373ffffffffffffffffffffffffffffffffffffffff161480610b4157506002600860003373ffffffffffffffffffffffffffffffffffffffff1673ffffffffffffffffffffffffffffffffffffffff16815260200190815260200160002054105b610b80576040517f08c379a0000000000000000000000000000000000000000000000000000000008152600401610b7790612664565b60405180910390fd5b610b8a60076115f6565b6000610b96600761160c565b9050610ba2338261161a565b610bad3383836106f2565b610c006001600860003373ffffffffffffffffffffffffffffffffffffffff1673ffffffffffffffffffffffffffffffffffffffff1681526020019081526020016000205461163890919063ffffffff16565b600860003373ffffffffffffffffffffffffffffffffffffffff1673ffffffffffffffffffffffffffffffffffffffff168152602001908152602001600020819055505050565b6000610c53600761160c565b905090565b6060610c6382610ef5565b610ca2576040517f08c379a0000000000000000000000000000000000000000000000000000000008152600401610c99906126f6565b60405180910390fd5b6000610cac61164e565b90506000815111610ccc5760405180602001604052806000815250610cf7565b80610cd684611665565b604051602001610ce7929190612752565b6040516020818303038152906040525b915050919050565b6000600560008473ffffffffffffffffffffffffffffffffffffffff1673ffffffffffffffffffffffffffffffffffffffff16815260200190815260200160002060008373ffffffffffffffffffffffffffffffffffffffff1673ffffffffffffffffffffffffffffffffffffffff16815260200190815260200160002060009054906101000a900460ff16905092915050565b610d9b610f61565b73ffffffffffffffffffffffffffffffffffffffff16610db9610904565b73ffffffffffffffffffffffffffffffffffffffff1614610e0f576040517f08c379a0000000000000000000000000000000000000000000000000000000008152600401610e069061258c565b60405180910390fd5b600073ffffffffffffffffffffffffffffffffffffffff168173ffffffffffffffffffffffffffffffffffffffff161415610e7f576040517f08c379a0000000000000000000000000000000000000000000000000000000008152600401610e76906127e8565b60405180910390fd5b610e8881611367565b50565b60007f01ffc9a7000000000000000000000000000000000000000000000000000000007bffffffffffffffffffffffffffffffffffffffffffffffffffffffff1916827bffffffffffffffffffffffffffffffffffffffffffffffffffffffff1916149050919050565b60008073ffffffffffffffffffffffffffffffffffffffff166002600084815260200190815260200160002060009054906101000a900473ffffffffffffffffffffffffffffffffffffffff1673ffffffffffffffffffffffffffffffffffffffff1614159050919050565b600033905090565b816004600083815260200190815260200160002060006101000a81548173ffffffffffffffffffffffffffffffffffffffff021916908373ffffffffffffffffffffffffffffffffffffffff160217905550808273ffffffffffffffffffffffffffffffffffffffff16610fdc83610712565b73ffffffffffffffffffffffffffffffffffffffff167f8c5be1e5ebec7d5bd14f71427d1e84f3dd0314c0f7b2291e5b200ac8c7c3b92560405160405180910390a45050565b600061102d82610ef5565b61106c576040517f08c379a00000000000000000000000000000000000000000000000000000000081526004016110639061287a565b60405180910390fd5b600061107783610712565b90508073ffffffffffffffffffffffffffffffffffffffff168473ffffffffffffffffffffffffffffffffffffffff1614806110e657508373ffffffffffffffffffffffffffffffffffffffff166110ce846104f5565b73ffffffffffffffffffffffffffffffffffffffff16145b806110f757506110f68185610cff565b5b91505092915050565b8273ffffffffffffffffffffffffffffffffffffffff1661112082610712565b73ffffffffffffffffffffffffffffffffffffffff1614611176576040517f08c379a000000000000000000000000000000000000000000000000000000000815260040161116d9061290c565b60405180910390fd5b600073ffffffffffffffffffffffffffffffffffffffff168273ffffffffffffffffffffffffffffffffffffffff1614156111e6576040517f08c379a00000000000000000000000000000000000000000000000000000000081526004016111dd9061299e565b60405180910390fd5b6111f18383836117c6565b6111fc600082610f69565b6001600360008573ffffffffffffffffffffffffffffffffffffffff1673ffffffffffffffffffffffffffffffffffffffff168152602001908152602001600020600082825461124c91906129ed565b925050819055506001600360008473ffffffffffffffffffffffffffffffffffffffff1673ffffffffffffffffffffffffffffffffffffffff16815260200190815260200160002060008282546112a39190612a21565b92505081905550816002600083815260200190815260200160002060006101000a81548173ffffffffffffffffffffffffffffffffffffffff021916908373ffffffffffffffffffffffffffffffffffffffff160217905550808273ffffffffffffffffffffffffffffffffffffffff168473ffffffffffffffffffffffffffffffffffffffff167fddf252ad1be2c89b69c2b068fc378daa952ba7f163c4a11628f55a4df523b3ef60405160405180910390a46113628383836117cb565b505050565b6000600660009054906101000a900473ffffffffffffffffffffffffffffffffffffffff16905081600660006101000a81548173ffffffffffffffffffffffffffffffffffffffff021916908373ffffffffffffffffffffffffffffffffffffffff1602179055508173ffffffffffffffffffffffffffffffffffffffff168173ffffffffffffffffffffffffffffffffffffffff167f8be0079c531659141344cd1fd0a4f28419497f9722a3daafe3b4186f6b6457e060405160405180910390a35050565b8173ffffffffffffffffffffffffffffffffffffffff168373ffffffffffffffffffffffffffffffffffffffff16141561149c576040517f08c379a000000000000000000000000000000000000000000000000000000000815260040161149390612ac3565b60405180910390fd5b80600560008573ffffffffffffffffffffffffffffffffffffffff1673ffffffffffffffffffffffffffffffffffffffff16815260200190815260200160002060008473ffffffffffffffffffffffffffffffffffffffff1673ffffffffffffffffffffffffffffffffffffffff16815260200190815260200160002060006101000a81548160ff0219169083151502179055508173ffffffffffffffffffffffffffffffffffffffff168373ffffffffffffffffffffffffffffffffffffffff167f17307eab39ab6107e8899845ad3d59bd9653f200f220920489ca2b5937696c318360405161158d9190611c64565b60405180910390a3505050565b6115a5848484611100565b6115b1848484846117d0565b6115f0576040517f08c379a00000000000000000000000000000000000000000000000000000000081526004016115e790612b55565b60405180910390fd5b50505050565b6001816000016000828254019250508190555050565b600081600001549050919050565b611634828260405180602001604052806000815250611958565b5050565b600081836116469190612a21565b905092915050565b606060405180602001604052806000815250905090565b606060008214156116ad576040518060400160405280600181526020017f300000000000000000000000000000000000000000000000000000000000000081525090506117c1565b600082905060005b600082146116df5780806116c890612b75565b915050600a826116d89190612bed565b91506116b5565b60008167ffffffffffffffff8111156116fb576116fa611f85565b5b6040519080825280601f01601f19166020018201604052801561172d5781602001600182028036833780820191505090505b5090505b600085146117ba5760018261174691906129ed565b9150600a856117559190612c1e565b60306117619190612a21565b60f81b81838151811061177757611776612c4f565b5b60200101907effffffffffffffffffffffffffffffffffffffffffffffffffffffffffffff1916908160001a905350600a856117b39190612bed565b9450611731565b8093505050505b919050565b505050565b505050565b60006117f18473ffffffffffffffffffffffffffffffffffffffff166119b3565b1561194b578373ffffffffffffffffffffffffffffffffffffffff1663150b7a0261181a610f61565b8786866040518563ffffffff1660e01b815260040161183c9493929190612cd3565b6020604051808303816000875af192505050801561187857506040513d601f19601f820116820180604052508101906118759190612d34565b60015b6118fb573d80600081146118a8576040519150601f19603f3d011682016040523d82523d6000602084013e6118ad565b606091505b506000815114156118f3576040517f08c379a00000000000000000000000000000000000000000000000000000000081526004016118ea90612b55565b60405180910390fd5b805181602001fd5b63150b7a0260e01b7bffffffffffffffffffffffffffffffffffffffffffffffffffffffff1916817bffffffffffffffffffffffffffffffffffffffffffffffffffffffff191614915050611950565b600190505b949350505050565b61196283836119d6565b61196f60008484846117d0565b6119ae576040517f08c379a00000000000000000000000000000000000000000000000000000000081526004016119a590612b55565b60405180910390fd5b505050565b6000808273ffffffffffffffffffffffffffffffffffffffff163b119050919050565b600073ffffffffffffffffffffffffffffffffffffffff168273ffffffffffffffffffffffffffffffffffffffff161415611a46576040517f08c379a0000000000000000000000000000000000000000000000000000000008152600401611a3d90612dad565b60405180910390fd5b611a4f81610ef5565b15611a8f576040517f08c379a0000000000000000000000000000000000000000000000000000000008152600401611a8690612e19565b60405180910390fd5b611a9b600083836117c6565b6001600360008473ffffffffffffffffffffffffffffffffffffffff1673ffffffffffffffffffffffffffffffffffffffff1681526020019081526020016000206000828254611aeb9190612a21565b92505081905550816002600083815260200190815260200160002060006101000a81548173ffffffffffffffffffffffffffffffffffffffff021916908373ffffffffffffffffffffffffffffffffffffffff160217905550808273ffffffffffffffffffffffffffffffffffffffff16600073ffffffffffffffffffffffffffffffffffffffff167fddf252ad1be2c89b69c2b068fc378daa952ba7f163c4a11628f55a4df523b3ef60405160405180910390a4611bac600083836117cb565b5050565b6000604051905090565b600080fd5b600080fd5b60007fffffffff0000000000000000000000000000000000000000000000000000000082169050919050565b611bf981611bc4565b8114611c0457600080fd5b50565b600081359050611c1681611bf0565b92915050565b600060208284031215611c3257611c31611bba565b5b6000611c4084828501611c07565b91505092915050565b60008115159050919050565b611c5e81611c49565b82525050565b6000602082019050611c796000830184611c55565b92915050565b600081519050919050565b600082825260208201905092915050565b60005b83811015611cb9578082015181840152602081019050611c9e565b83811115611cc8576000848401525b50505050565b6000601f19601f8301169050919050565b6000611cea82611c7f565b611cf48185611c8a565b9350611d04818560208601611c9b565b611d0d81611cce565b840191505092915050565b60006020820190508181036000830152611d328184611cdf565b905092915050565b6000819050919050565b611d4d81611d3a565b8114611d5857600080fd5b50565b600081359050611d6a81611d44565b92915050565b600060208284031215611d8657611d85611bba565b5b6000611d9484828501611d5b565b91505092915050565b600073ffffffffffffffffffffffffffffffffffffffff82169050919050565b6000611dc882611d9d565b9050919050565b611dd881611dbd565b82525050565b6000602082019050611df36000830184611dcf565b92915050565b611e0281611dbd565b8114611e0d57600080fd5b50565b600081359050611e1f81611df9565b92915050565b60008060408385031215611e3c57611e3b611bba565b5b6000611e4a85828601611e10565b9250506020611e5b85828601611d5b565b9150509250929050565b600080600060608486031215611e7e57611e7d611bba565b5b6000611e8c86828701611e10565b9350506020611e9d86828701611e10565b9250506040611eae86828701611d5b565b9150509250925092565b600060208284031215611ece57611ecd611bba565b5b6000611edc84828501611e10565b91505092915050565b611eee81611d3a565b82525050565b6000602082019050611f096000830184611ee5565b92915050565b611f1881611c49565b8114611f2357600080fd5b50565b600081359050611f3581611f0f565b92915050565b60008060408385031215611f5257611f51611bba565b5b6000611f6085828601611e10565b9250506020611f7185828601611f26565b9150509250929050565b600080fd5b600080fd5b7f4e487b7100000000000000000000000000000000000000000000000000000000600052604160045260246000fd5b611fbd82611cce565b810181811067ffffffffffffffff82111715611fdc57611fdb611f85565b5b80604052505050565b6000611fef611bb0565b9050611ffb8282611fb4565b919050565b600067ffffffffffffffff82111561201b5761201a611f85565b5b61202482611cce565b9050602081019050919050565b82818337600083830152505050565b600061205361204e84612000565b611fe5565b90508281526020810184848401111561206f5761206e611f80565b5b61207a848285612031565b509392505050565b600082601f83011261209757612096611f7b565b5b81356120a7848260208601612040565b91505092915050565b600080600080608085870312156120ca576120c9611bba565b5b60006120d887828801611e10565b94505060206120e987828801611e10565b93505060406120fa87828801611d5b565b925050606085013567ffffffffffffffff81111561211b5761211a611bbf565b5b61212787828801612082565b91505092959194509250565b6000806040838503121561214a57612149611bba565b5b600061215885828601611e10565b925050602061216985828601611e10565b9150509250929050565b7f4e487b7100000000000000000000000000000000000000000000000000000000600052602260045260246000fd5b600060028204905060018216806121ba57607f821691505b602082108114156121ce576121cd612173565b5b50919050565b7f4552433732313a20617070726f76656420717565727920666f72206e6f6e657860008201527f697374656e7420746f6b656e0000000000000000000000000000000000000000602082015250565b6000612230602c83611c8a565b915061223b826121d4565b604082019050919050565b6000602082019050818103600083015261225f81612223565b9050919050565b7f4552433732313a20617070726f76616c20746f2063757272656e74206f776e6560008201527f7200000000000000000000000000000000000000000000000000000000000000602082015250565b60006122c2602183611c8a565b91506122cd82612266565b604082019050919050565b600060208201905081810360008301526122f1816122b5565b9050919050565b7f4552433732313a20617070726f76652063616c6c6572206973206e6f74206f7760008201527f6e6572206e6f7220617070726f76656420666f7220616c6c0000000000000000602082015250565b6000612354603883611c8a565b915061235f826122f8565b604082019050919050565b6000602082019050818103600083015261238381612347565b9050919050565b7f4552433732313a207472616e736665722063616c6c6572206973206e6f74206f60008201527f776e6572206e6f7220617070726f766564000000000000000000000000000000602082015250565b60006123e6603183611c8a565b91506123f18261238a565b604082019050919050565b60006020820190508181036000830152612415816123d9565b9050919050565b7f4552433732313a206f776e657220717565727920666f72206e6f6e657869737460008201527f656e7420746f6b656e0000000000000000000000000000000000000000000000602082015250565b6000612478602983611c8a565b91506124838261241c565b604082019050919050565b600060208201905081810360008301526124a78161246b565b9050919050565b7f4552433732313a2062616c616e636520717565727920666f7220746865207a6560008201527f726f206164647265737300000000000000000000000000000000000000000000602082015250565b600061250a602a83611c8a565b9150612515826124ae565b604082019050919050565b60006020820190508181036000830152612539816124fd565b9050919050565b7f4f776e61626c653a2063616c6c6572206973206e6f7420746865206f776e6572600082015250565b6000612576602083611c8a565b915061258182612540565b602082019050919050565b600060208201905081810360008301526125a581612569565b9050919050565b7f6e6f74206d656d62657200000000000000000000000000000000000000000000600082015250565b60006125e2600a83611c8a565b91506125ed826125ac565b602082019050919050565b60006020820190508181036000830152612611816125d5565b9050919050565b7f6f76657220696e76697465206c696d6974000000000000000000000000000000600082015250565b600061264e601183611c8a565b915061265982612618565b602082019050919050565b6000602082019050818103600083015261267d81612641565b9050919050565b7f4552433732314d657461646174613a2055524920717565727920666f72206e6f60008201527f6e6578697374656e7420746f6b656e0000000000000000000000000000000000602082015250565b60006126e0602f83611c8a565b91506126eb82612684565b604082019050919050565b6000602082019050818103600083015261270f816126d3565b9050919050565b600081905092915050565b600061272c82611c7f565b6127368185612716565b9350612746818560208601611c9b565b80840191505092915050565b600061275e8285612721565b915061276a8284612721565b91508190509392505050565b7f4f776e61626c653a206e6577206f776e657220697320746865207a65726f206160008201527f6464726573730000000000000000000000000000000000000000000000000000602082015250565b60006127d2602683611c8a565b91506127dd82612776565b604082019050919050565b60006020820190508181036000830152612801816127c5565b9050919050565b7f4552433732313a206f70657261746f7220717565727920666f72206e6f6e657860008201527f697374656e7420746f6b656e0000000000000000000000000000000000000000602082015250565b6000612864602c83611c8a565b915061286f82612808565b604082019050919050565b6000602082019050818103600083015261289381612857565b9050919050565b7f4552433732313a207472616e736665722066726f6d20696e636f72726563742060008201527f6f776e6572000000000000000000000000000000000000000000000000000000602082015250565b60006128f6602583611c8a565b91506129018261289a565b604082019050919050565b60006020820190508181036000830152612925816128e9565b9050919050565b7f4552433732313a207472616e7366657220746f20746865207a65726f2061646460008201527f7265737300000000000000000000000000000000000000000000000000000000602082015250565b6000612988602483611c8a565b91506129938261292c565b604082019050919050565b600060208201905081810360008301526129b78161297b565b9050919050565b7f4e487b7100000000000000000000000000000000000000000000000000000000600052601160045260246000fd5b60006129f882611d3a565b9150612a0383611d3a565b925082821015612a1657612a156129be565b5b828203905092915050565b6000612a2c82611d3a565b9150612a3783611d3a565b9250827fffffffffffffffffffffffffffffffffffffffffffffffffffffffffffffffff03821115612a6c57612a6b6129be565b5b828201905092915050565b7f4552433732313a20617070726f766520746f2063616c6c657200000000000000600082015250565b6000612aad601983611c8a565b9150612ab882612a77565b602082019050919050565b60006020820190508181036000830152612adc81612aa0565b9050919050565b7f4552433732313a207472616e7366657220746f206e6f6e20455243373231526560008201527f63656976657220696d706c656d656e7465720000000000000000000000000000602082015250565b6000612b3f603283611c8a565b9150612b4a82612ae3565b604082019050919050565b60006020820190508181036000830152612b6e81612b32565b9050919050565b6000612b8082611d3a565b91507fffffffffffffffffffffffffffffffffffffffffffffffffffffffffffffffff821415612bb357612bb26129be565b5b600182019050919050565b7f4e487b7100000000000000000000000000000000000000000000000000000000600052601260045260246000fd5b6000612bf882611d3a565b9150612c0383611d3a565b925082612c1357612c12612bbe565b5b828204905092915050565b6000612c2982611d3a565b9150612c3483611d3a565b925082612c4457612c43612bbe565b5b828206905092915050565b7f4e487b7100000000000000000000000000000000000000000000000000000000600052603260045260246000fd5b600081519050919050565b600082825260208201905092915050565b6000612ca582612c7e565b612caf8185612c89565b9350612cbf818560208601611c9b565b612cc881611cce565b840191505092915050565b6000608082019050612ce86000830187611dcf565b612cf56020830186611dcf565b612d026040830185611ee5565b8181036060830152612d148184612c9a565b905095945050505050565b600081519050612d2e81611bf0565b92915050565b600060208284031215612d4a57612d49611bba565b5b6000612d5884828501612d1f565b91505092915050565b7f4552433732313a206d696e7420746f20746865207a65726f2061646472657373600082015250565b6000612d97602083611c8a565b9150612da282612d61565b602082019050919050565b60006020820190508181036000830152612dc681612d8a565b9050919050565b7f4552433732313a20746f6b656e20616c7265616479206d696e74656400000000600082015250565b6000612e03601c83611c8a565b9150612e0e82612dcd565b602082019050919050565b60006020820190508181036000830152612e3281612df6565b905091905056fea26469706673582212202da23db3481cf1e2f717cfe313984b819515fcce479ad185b52b062f2245dc0964736f6c634300080b0033",
  "immutableReferences": {},
  "source": "// SPDX-License-Identifier: MIT\npragma solidity ^0.8.0;\n\nimport \"@openzeppelin/contracts/token/ERC721/ERC721.sol\";\nimport \"@openzeppelin/contracts/access/Ownable.sol\";\nimport \"@openzeppelin/contracts/utils/Counters.sol\";\nimport \"@openzeppelin/contracts/utils/math/SafeMath.sol\";\nimport \"hardhat/console.sol\";\n\ncontract LimitedCellToken is ERC721, Ownable {\n    using SafeMath for uint256;\n    using Counters for Counters.Counter;\n    Counters.Counter private _tokenCounter;\n\n    uint256 constant MAX_INVITE = 2;\n\n    mapping(address => uint256) memberInviteCount;\n\n    constructor() ERC721(\"CellToken\", \"Cell\") {}\n\n  modifier onlyOwnerOrMember() {\n    require(\n      msg.sender == owner() || balanceOf(msg.sender) >= 1,\n      \"not member\"\n    );\n    _;\n  }\n\n  modifier caninvite() {\n    require(\n      msg.sender == owner() || memberInviteCount[msg.sender] < MAX_INVITE,\n      \"over invite limit\"\n    );\n    _;\n  }\n\n  function mintAndTransfer(address _to) public onlyOwnerOrMember caninvite {\n    _tokenCounter.increment();\n\n    uint256 _newItemId = _tokenCounter.current();\n    _safeMint(msg.sender, _newItemId);\n    safeTransferFrom(msg.sender, _to, _newItemId);\n\n    memberInviteCount[msg.sender] = memberInviteCount[msg.sender].add(1);\n  }\n\n  function getTotalSupply() external view returns (uint256) {\n    return _tokenCounter.current();\n  }\n}",
  "sourcePath": "/Users/allegorywrite/todoapp/blockchain/celltoken/contracts/LimitedCellToken.sol",
  "compiler": {
    "name": "solc",
    "version": "0.8.11+commit.d7f03943.Emscripten.clang"
  },
  "schemaVersion": "3.4.4",
  "updatedAt": "2022-02-05T09:19:06.603Z",
  "devdoc": {
    "kind": "dev",
    "methods": {
      "approve(address,uint256)": {
        "details": "See {IERC721-approve}."
      },
      "balanceOf(address)": {
        "details": "See {IERC721-balanceOf}."
      },
      "getApproved(uint256)": {
        "details": "See {IERC721-getApproved}."
      },
      "isApprovedForAll(address,address)": {
        "details": "See {IERC721-isApprovedForAll}."
      },
      "name()": {
        "details": "See {IERC721Metadata-name}."
      },
      "owner()": {
        "details": "Returns the address of the current owner."
      },
      "ownerOf(uint256)": {
        "details": "See {IERC721-ownerOf}."
      },
      "renounceOwnership()": {
        "details": "Leaves the contract without owner. It will not be possible to call `onlyOwner` functions anymore. Can only be called by the current owner. NOTE: Renouncing ownership will leave the contract without an owner, thereby removing any functionality that is only available to the owner."
      },
      "safeTransferFrom(address,address,uint256)": {
        "details": "See {IERC721-safeTransferFrom}."
      },
      "safeTransferFrom(address,address,uint256,bytes)": {
        "details": "See {IERC721-safeTransferFrom}."
      },
      "setApprovalForAll(address,bool)": {
        "details": "See {IERC721-setApprovalForAll}."
      },
      "supportsInterface(bytes4)": {
        "details": "See {IERC165-supportsInterface}."
      },
      "symbol()": {
        "details": "See {IERC721Metadata-symbol}."
      },
      "tokenURI(uint256)": {
        "details": "See {IERC721Metadata-tokenURI}."
      },
      "transferFrom(address,address,uint256)": {
        "details": "See {IERC721-transferFrom}."
      },
      "transferOwnership(address)": {
        "details": "Transfers ownership of the contract to a new account (`newOwner`). Can only be called by the current owner."
      }
    },
    "version": 1
  },
  "userdoc": {
    "kind": "user",
    "methods": {},
    "version": 1
  }
}